{
  "_format": "hh-sol-artifact-1",
  "contractName": "MemeLaunchpad",
  "sourceName": "contracts/MemeLaunchpad/MemeLaunchpad.sol",
  "abi": [
    {
      "inputs": [
        {
          "internalType": "address",
          "name": "_erc20ForSplFactory",
          "type": "address"
        },
        {
          "internalType": "address",
          "name": "_bondingCurve",
          "type": "address"
        },
        {
          "internalType": "contract IERC20ForSpl",
          "name": "_wsolToken",
          "type": "address"
        },
        {
          "internalType": "uint64",
          "name": "_feePercent",
          "type": "uint64"
        }
      ],
      "stateMutability": "nonpayable",
      "type": "constructor"
    },
    {
      "inputs": [
        {
          "internalType": "bytes32",
          "name": "poolId",
          "type": "bytes32"
        }
      ],
      "name": "AlreadyExistingPool",
      "type": "error"
    },
    {
      "inputs": [],
      "name": "EmptyTokenAddress",
      "type": "error"
    },
    {
      "inputs": [],
      "name": "Float64Overflow",
      "type": "error"
    },
    {
      "inputs": [],
      "name": "IdenticalTokenAddresses",
      "type": "error"
    },
    {
      "inputs": [],
      "name": "InsufficientInputAmount",
      "type": "error"
    },
    {
      "inputs": [
        {
          "internalType": "uint256",
          "name": "chainId",
          "type": "uint256"
        }
      ],
      "name": "InvalidChain",
      "type": "error"
    },
    {
      "inputs": [
        {
          "internalType": "bytes32",
          "name": "configAccount",
          "type": "bytes32"
        }
      ],
      "name": "InvalidConfig",
      "type": "error"
    },
    {
      "inputs": [],
      "name": "InvalidInputAmount",
      "type": "error"
    },
    {
      "inputs": [
        {
          "internalType": "bytes32",
          "name": "poolId",
          "type": "bytes32"
        }
      ],
      "name": "InvalidPool",
      "type": "error"
    },
    {
      "inputs": [],
      "name": "InvalidTokenSale",
      "type": "error"
    },
    {
      "inputs": [],
      "name": "InvalidTokenSaleFee",
      "type": "error"
    },
    {
      "inputs": [],
      "name": "InvalidTokens",
      "type": "error"
    },
    {
      "inputs": [],
      "name": "NegativeFloat64",
      "type": "error"
    },
    {
      "inputs": [
        {
          "internalType": "address",
          "name": "owner",
          "type": "address"
        }
      ],
      "name": "OwnableInvalidOwner",
      "type": "error"
    },
    {
      "inputs": [
        {
          "internalType": "address",
          "name": "account",
          "type": "address"
        }
      ],
      "name": "OwnableUnauthorizedAccount",
      "type": "error"
    },
    {
      "inputs": [],
      "name": "ReentrancyGuardReentrantCall",
      "type": "error"
    },
    {
      "inputs": [],
      "name": "SystemAccountDataQuery",
      "type": "error"
    },
    {
      "inputs": [],
      "name": "TokenAccountDataQuery",
      "type": "error"
    },
    {
      "anonymous": false,
      "inputs": [
        {
          "indexed": true,
          "internalType": "address",
          "name": "previousOwner",
          "type": "address"
        },
        {
          "indexed": true,
          "internalType": "address",
          "name": "newOwner",
          "type": "address"
        }
      ],
      "name": "OwnershipTransferred",
      "type": "event"
    },
    {
      "anonymous": false,
      "inputs": [
        {
          "indexed": true,
          "internalType": "address",
          "name": "token",
          "type": "address"
        },
        {
          "indexed": true,
          "internalType": "bytes32",
          "name": "poolId",
          "type": "bytes32"
        },
        {
          "indexed": false,
          "internalType": "uint64",
          "name": "lpAmount",
          "type": "uint64"
        },
        {
          "indexed": false,
          "internalType": "bytes32",
          "name": "lpLockPositionNFTAccount",
          "type": "bytes32"
        }
      ],
      "name": "TokenLiqudityAdded",
      "type": "event"
    },
    {
      "anonymous": false,
      "inputs": [
        {
          "indexed": true,
          "internalType": "address",
          "name": "token",
          "type": "address"
        }
      ],
      "name": "TokenSaleCreated",
      "type": "event"
    },
    {
      "inputs": [],
      "name": "CALL_SOLANA",
      "outputs": [
        {
          "internalType": "contract ICallSolana",
          "name": "",
          "type": "address"
        }
      ],
      "stateMutability": "view",
      "type": "function"
    },
    {
      "inputs": [],
      "name": "FEE_DENOMINATOR",
      "outputs": [
        {
          "internalType": "uint64",
          "name": "",
          "type": "uint64"
        }
      ],
      "stateMutability": "view",
      "type": "function"
    },
    {
      "inputs": [],
      "name": "bondingCurve",
      "outputs": [
        {
          "internalType": "contract BondingCurve",
          "name": "",
          "type": "address"
        }
      ],
      "stateMutability": "view",
      "type": "function"
    },
    {
      "inputs": [
        {
          "internalType": "address",
          "name": "tokenAddress",
          "type": "address"
        },
        {
          "internalType": "uint64",
          "name": "amount",
          "type": "uint64"
        }
      ],
      "name": "buy",
      "outputs": [],
      "stateMutability": "nonpayable",
      "type": "function"
    },
    {
      "inputs": [
        {
          "internalType": "address",
          "name": "tokenAddress",
          "type": "address"
        },
        {
          "internalType": "uint64",
          "name": "amount",
          "type": "uint64"
        }
      ],
      "name": "calculateBuyAmount",
      "outputs": [
        {
          "internalType": "uint256",
          "name": "receiveAmount",
          "type": "uint256"
        },
        {
          "internalType": "uint256",
          "name": "availableSupply",
          "type": "uint256"
        },
        {
          "internalType": "uint256",
          "name": "totalSupply",
          "type": "uint256"
        },
        {
          "internalType": "uint256",
          "name": "contributionWithoutFee",
          "type": "uint256"
        }
      ],
      "stateMutability": "view",
      "type": "function"
    },
    {
      "inputs": [],
      "name": "claimTokenSaleFee",
      "outputs": [],
      "stateMutability": "nonpayable",
      "type": "function"
    },
    {
      "inputs": [
        {
          "internalType": "bytes32",
          "name": "poolId",
          "type": "bytes32"
        },
        {
          "internalType": "address",
          "name": "tokenA",
          "type": "address"
        },
        {
          "internalType": "address",
          "name": "tokenB",
          "type": "address"
        },
        {
          "internalType": "uint64",
          "name": "lpFeeAmount",
          "type": "uint64"
        }
      ],
      "name": "collectPoolFees",
      "outputs": [],
      "stateMutability": "nonpayable",
      "type": "function"
    },
    {
      "inputs": [
        {
          "internalType": "string",
          "name": "name",
          "type": "string"
        },
        {
          "internalType": "string",
          "name": "symbol",
          "type": "string"
        },
        {
          "internalType": "uint8",
          "name": "decimals",
          "type": "uint8"
        },
        {
          "internalType": "uint64",
          "name": "fundingGoal",
          "type": "uint64"
        },
        {
          "internalType": "uint64",
          "name": "initialSupply",
          "type": "uint64"
        },
        {
          "internalType": "uint64",
          "name": "fundingSupply",
          "type": "uint64"
        }
      ],
      "name": "createTokenSale",
      "outputs": [
        {
          "internalType": "address",
          "name": "",
          "type": "address"
        }
      ],
      "stateMutability": "nonpayable",
      "type": "function"
    },
    {
      "inputs": [],
      "name": "erc20ForSplFactory",
      "outputs": [
        {
          "internalType": "address",
          "name": "",
          "type": "address"
        }
      ],
      "stateMutability": "view",
      "type": "function"
    },
    {
      "inputs": [],
      "name": "fee",
      "outputs": [
        {
          "internalType": "uint64",
          "name": "",
          "type": "uint64"
        }
      ],
      "stateMutability": "view",
      "type": "function"
    },
    {
      "inputs": [],
      "name": "feePercent",
      "outputs": [
        {
          "internalType": "uint64",
          "name": "",
          "type": "uint64"
        }
      ],
      "stateMutability": "view",
      "type": "function"
    },
    {
      "inputs": [
        {
          "internalType": "address",
          "name": "_address",
          "type": "address"
        }
      ],
      "name": "getNeonAddress",
      "outputs": [
        {
          "internalType": "bytes32",
          "name": "",
          "type": "bytes32"
        }
      ],
      "stateMutability": "view",
      "type": "function"
    },
    {
      "inputs": [
        {
          "internalType": "address",
          "name": "token",
          "type": "address"
        },
        {
          "internalType": "address",
          "name": "evm_address",
          "type": "address"
        }
      ],
      "name": "getNeonArbitraryTokenAccount",
      "outputs": [
        {
          "internalType": "bytes32",
          "name": "",
          "type": "bytes32"
        }
      ],
      "stateMutability": "view",
      "type": "function"
    },
    {
      "inputs": [],
      "name": "getPayer",
      "outputs": [
        {
          "internalType": "bytes32",
          "name": "",
          "type": "bytes32"
        }
      ],
      "stateMutability": "view",
      "type": "function"
    },
    {
      "inputs": [],
      "name": "owner",
      "outputs": [
        {
          "internalType": "address",
          "name": "",
          "type": "address"
        }
      ],
      "stateMutability": "view",
      "type": "function"
    },
    {
      "inputs": [],
      "name": "renounceOwnership",
      "outputs": [],
      "stateMutability": "nonpayable",
      "type": "function"
    },
    {
      "inputs": [
        {
          "internalType": "uint64",
          "name": "_feePercent",
          "type": "uint64"
        }
      ],
      "name": "setFeePercent",
      "outputs": [],
      "stateMutability": "nonpayable",
      "type": "function"
    },
    {
      "inputs": [
        {
          "internalType": "address",
          "name": "",
          "type": "address"
        }
      ],
      "name": "tokens",
      "outputs": [
        {
          "internalType": "uint64",
          "name": "fundingGoal",
          "type": "uint64"
        },
        {
          "internalType": "uint64",
          "name": "initialSupply",
          "type": "uint64"
        },
        {
          "internalType": "uint64",
          "name": "fundingSupply",
          "type": "uint64"
        },
        {
          "internalType": "uint64",
          "name": "collateralAmount",
          "type": "uint64"
        },
        {
          "internalType": "enum MemeLaunchpad.TokenState",
          "name": "state",
          "type": "uint8"
        }
      ],
      "stateMutability": "view",
      "type": "function"
    },
    {
      "inputs": [
        {
          "internalType": "address",
          "name": "newOwner",
          "type": "address"
        }
      ],
      "name": "transferOwnership",
      "outputs": [],
      "stateMutability": "nonpayable",
      "type": "function"
    },
    {
      "inputs": [],
      "name": "wsolToken",
      "outputs": [
        {
          "internalType": "contract IERC20ForSpl",
          "name": "",
          "type": "address"
        }
      ],
      "stateMutability": "view",
      "type": "function"
    }
  ],
  "bytecode": "0x60e03461017d57601f61418c38819003918201601f19168301916001600160401b038311848410176101825780849260809460405283398101031261017d5761004781610198565b9061005460208201610198565b604082015190916001600160a01b038216820361017d57606001516001600160401b038116929083900361017d57600160005533156101675760018054336001600160a01b0319821681179092556040519591906001600160a01b03167f8be0079c531659141344cd1fd0a4f28419497f9722a3daafe3b4186f6b6457e0600080a36101f48411610156576080526001600160a01b031660c05260a052600380546001600160401b031916919091179055613fdf90816101ad82396080518181816104fc015261132b015260a0518181816101dd0152818161080d015281816109d20152612061015260c051818181610ab801528181610e6f01526110820152f35b63a0fa7c8f60e01b60005260046000fd5b631e4fbdf760e01b600052600060045260246000fd5b600080fd5b634e487b7160e01b600052604160045260246000fd5b51906001600160a01b038216820361017d5756fe6080604052600436101561001257600080fd5b60003560e01c8062b8d8491461015657806313343d5a14610151578063154d4aa51461014c5780631d191264146101475780632d67bb401461014257806330aa81c61461013d5780634f64093a14610138578063715018a6146101335780637fd6f15c1461012e5780638da5cb5b1461012957806392827585146101245780639a83aa8b1461011f578063a22a0f951461011a578063a592a57a14610115578063d73792a914610110578063ddca3f431461010b578063e486033914610106578063eff1d50e14610101578063f2fde38b146100fc5763fcedf0e2146100f757600080fd5b61113f565b6110b1565b61106c565b610ffd565b610f79565b610f5c565b610de2565b610da6565b61083c565b6107f7565b6107ce565b6107a7565b61074a565b610593565b61052b565b6104e6565b610446565b610270565b61018e565b61016b565b600091031261016657565b600080fd5b3461016657600036600319011261016657604051600660ff60981b018152602090f35b34610166576000366003190112610166576101a761193b565b6003546040805163a9059cbb60e01b815233600482015291901c6001600160401b031660248201526020818060448101038160007f00000000000000000000000000000000000000000000000000000000000000006001600160a01b03165af1801561025a5761022d575b61022b67ffffffffffffffff60401b1960035416600355565b005b61024e9060203d602011610253575b6102468183610326565b81019061119c565b610212565b503d61023c565b6111b4565b6001600160a01b0381160361016657565b346101665760203660031901126101665760043561028d8161025f565b60405163154d4aa560e01b81526001600160a01b039091166004820152602081602481600660ff60981b015afa801561025a576102dd916000916102e1575b506040519081529081906020820190565b0390f35b610303915060203d602011610309575b6102fb8183610326565b8101906111c0565b386102cc565b503d6102f1565b634e487b7160e01b600052604160045260246000fd5b90601f801991011681019081106001600160401b0382111761034757604052565b610310565b6040519061035b60a083610326565b565b6040519061035b61014083610326565b6040519061035b61010083610326565b6040519061035b604083610326565b6001600160401b03811161034757601f01601f191660200190565b81601f82011215610166578035906103be8261038c565b926103cc6040519485610326565b8284526020838301011161016657816000926020809301838601378301015290565b606435906001600160401b038216820361016657565b608435906001600160401b038216820361016657565b60a435906001600160401b038216820361016657565b602435906001600160401b038216820361016657565b346101665760c0366003190112610166576004356001600160401b038111610166576104769036906004016103a7565b6024356001600160401b038111610166576104959036906004016103a7565b906044359060ff82168203610166576102dd926104cc926104b46103ee565b906104bd610404565b926104c661041a565b946112ff565b6040516001600160a01b0390911681529081906020820190565b34610166576000366003190112610166576040517f00000000000000000000000000000000000000000000000000000000000000006001600160a01b03168152602090f35b346101665760003660031901126101665760405163185540e360e11b8152602081600481600660ff60981b015afa90811561025a57600091610574575b50604051908152602090f35b61058d915060203d602011610309576102fb8183610326565b38610568565b34610166576080366003190112610166576024356004356105b38261025f565b6044356105bf8161025f565b6105c76103ee565b906105d061193b565b60405163af25c07760e01b81526020816004816001600160a01b0389165afa90811561025a5760009161072b575b5060405163af25c07760e01b8152916020836004816001600160a01b0385165afa801561025a576106bc966000966106a296610695968994610704575b50610668610678949561065761064f61145c565b953390611862565b6106608661150d565b523390611862565b61067184611523565b5281611964565b959193909461068684611534565b511490816106f1575b50611670565b61069d611e62565b611ed5565b6040518093819263c549a7af60e01b8352600483016116e6565b038183600660ff60981b015af1801561025a576106d557005b61022b903d806000833e6106e98183610326565b810190611688565b90506106fc83611545565b51143861068f565b61067894506107246106689160203d602011610309576102fb8183610326565b945061063b565b610744915060203d602011610309576102fb8183610326565b386105fe565b346101665760003660031901126101665761076361193b565b600180546001600160a01b031981169091556000906001600160a01b03167f8be0079c531659141344cd1fd0a4f28419497f9722a3daafe3b4186f6b6457e08280a3005b346101665760003660031901126101665760206001600160401b0360035416604051908152f35b34610166576000366003190112610166576001546040516001600160a01b039091168152602090f35b34610166576000366003190112610166576040517f00000000000000000000000000000000000000000000000000000000000000006001600160a01b03168152602090f35b34610166576040366003190112610166576004356108598161025f565b610861610430565b600260005414610d95576002600055806108ad600161089e816108968760018060a01b03166000526002602052604060002090565b015460ff1690565b6108a781610fa3565b146116fe565b6108c16001600160401b0383161515611716565b61092361091d6108f36108e68660018060a01b03166000526002602052604060002090565b546001600160401b031690565b6001600160a01b0386166000908152600260205260409020610917905b5460c01c90565b90611787565b92611fa1565b916001600160401b0381166001600160401b03841611610d4e575b5060208161099761096e610955866109cc96611787565b60035460401c6001600160401b031661182b565b61182b565b67ffffffffffffffff60401b6003549160401b169067ffffffffffffffff60401b191617600355565b6040516323b872dd60e01b81523360048201523060248201526001600160401b03909116604482015291829081906064820190565b038160007f00000000000000000000000000000000000000000000000000000000000000006001600160a01b03165af1801561025a57610d31575b506001600160a01b0382166000818152600260205260409020909190610a5690610a3683610969835460c01c90565b81546001600160c01b031660c09190911b6001600160c01b031916179055565b6040516318160ddd60e01b8152602081600481865afa91821561025a57610ab492602092600091610d14575b50604051637cabb7cf60e01b815260048101919091526001600160401b03909116602482015291829081906044820190565b03817f00000000000000000000000000000000000000000000000000000000000000006001600160a01b03165afa90811561025a57600091610cf5575b50813b15610166576040516340c10f1960e01b8152336004820152602481019190915260008160448183865af1801561025a57610ce0575b506001600160a01b0382166000908152600260205260409020610b4b90610910565b6001600160401b03610b81610b756108e68660018060a01b03166000526002602052604060002090565b6001600160401b031690565b91161015610b94575b61022b6001600055565b6001600160a01b0382166000908152600260205260409020610bc1905b5460401c6001600160401b031690565b813b15610166576040516340c10f1960e01b81523060048201526001600160401b0391909116602482015260008160448183865af1801561025a57610c95937fb51798fdba48789678f1bdb224d6307325af33888fc408396d5f1f2ddaff03c992600192610cc5575b50610ca3610c78610c506109108460018060a01b03166000526002602052604060002090565b6001600160a01b0384166000908152600260205260409020610c7190610bb1565b908761204e565b949197909360018060a01b03166000526002602052604060002090565b01805460ff19166002179055565b604080516001600160401b039290921682526020820192909252a33880610b8a565b80610cd46000610cda93610326565b8061015b565b38610c2a565b80610cd46000610cef93610326565b38610b29565b610d0e915060203d602011610309576102fb8183610326565b38610af1565b610d2b9150833d8511610309576102fb8183610326565b38610a82565b610d499060203d602011610253576102468183610326565b610a07565b9150506109cc6020610d8e610d88610d77610d716003546001600160401b031690565b866117a7565b6001600160401b0361271091160490565b8461182b565b915061093e565b633ee5aeb560e01b60005260046000fd5b34610166576040366003190112610166576020610dda600435610dc88161025f565b60243590610dd58261025f565b611862565b604051908152f35b3461016657604036600319011261016657600435610dff8161025f565b610e12610b75610e0d610430565b611fa1565b6040516318160ddd60e01b815291906020836004816001600160a01b0386165afa92831561025a57600093610f3b575b50604051637cabb7cf60e01b81526004810184905260248101829052906020826044816001600160a01b037f0000000000000000000000000000000000000000000000000000000000000000165afa91821561025a578490600093610f06575b50610ee290610edd610b75610ecd6102dd969760018060a01b03166000526002602052604060002090565b5460801c6001600160401b031690565b61192e565b93604051948594859094939260609260808301968352602083015260408201520152565b6102dd935090610edd610b75610ecd610f30610ee29560203d602011610309576102fb8183610326565b965050505090610ea2565b610f5591935060203d602011610309576102fb8183610326565b9138610e42565b346101665760003660031901126101665760206040516127108152f35b346101665760003660031901126101665760206001600160401b0360035460401c16604051908152f35b60031115610fad57565b634e487b7160e01b600052602160045260246000fd5b6001600160401b039182168152918116602083015291821660408201529116606082015260a081019291906003821015610fad5760800152565b346101665760203660031901126101665760043561101a8161025f565b60018060a01b03166000526002602052604060002060ff6001825492015416906102dd6040519282849360c01c906001600160401b038160801c16906001600160401b03808260401c16911686610fc3565b34610166576000366003190112610166576040517f00000000000000000000000000000000000000000000000000000000000000006001600160a01b03168152602090f35b34610166576020366003190112610166576004356110ce8161025f565b6110d661193b565b6001600160a01b0316801561112957600180546001600160a01b0319811683179091556001600160a01b03167f8be0079c531659141344cd1fd0a4f28419497f9722a3daafe3b4186f6b6457e0600080a3005b631e4fbdf760e01b600052600060045260246000fd5b34610166576020366003190112610166576004356001600160401b0381168091036101665761116c61193b565b6101f4811161118b576001600160401b03196003541617600355600080f35b63a0fa7c8f60e01b60005260046000fd5b90816020910312610166575180151581036101665790565b6040513d6000823e3d90fd5b90816020910312610166575190565b9081602091031261016657516111e48161025f565b90565b60005b8381106111fa5750506000910152565b81810151838201526020016111ea565b90602091611223815180928185528580860191016111e7565b601f01601f1916010190565b9294939061125b60609361124d60ff9360808852608088019061120a565b90868203602088015261120a565b951660408401526001600160a01b0316910152565b906003811015610fad5760ff80198354169116179055565b81516020830151604080850151606086015167ffffffffffffffff60401b9390921b929092166001600160401b039093169290921767ffffffffffffffff60801b608092831b161760c09290921b6001600160c01b031916919091178255909101516003811015610fad57600161035b9201611270565b604051633f392f4b60e21b8152949592602092869283926113259230926004860161122f565b038160007f00000000000000000000000000000000000000000000000000000000000000006001600160a01b03165af192831561025a57600093611408575b506113ab9061139b6113d6949561138b61137c61034c565b6001600160401b039096168652565b6001600160401b03166020850152565b6001600160401b03166040830152565b60006060820152600160808201526001600160a01b0383166000908152600260205260409020611288565b6001600160a01b0381167f384baf7cfea1aac6ce65aa150f746c32dd020ef4ed2d1c12dece514341f48f06600080a290565b6113d693509061139b6114356113ab9360203d60201161143e575b61142d8183610326565b8101906111cf565b94505090611364565b503d611423565b6001600160401b0381116103475760051b60200190565b604051610260919061146e8382610326565b6012815291601f1901366020840137565b6040516102a091906114918382610326565b6014815291601f1901366020840137565b60405161028091906114b48382610326565b6013815291601f1901366020840137565b906114cf82611445565b6114dc6040519182610326565b82815280926114ed601f1991611445565b0190602036910137565b634e487b7160e01b600052603260045260246000fd5b80516008101561151e576101200190565b6114f7565b80516009101561151e576101400190565b8051600c101561151e576101a00190565b8051600d101561151e576101c00190565b80511561151e5760200190565b80516001101561151e5760400190565b80516002101561151e5760600190565b80516003101561151e5760800190565b80516004101561151e5760a00190565b80516005101561151e5760c00190565b80516006101561151e5760e00190565b80516007101561151e576101000190565b8051600a101561151e576101600190565b8051600b101561151e576101800190565b8051600e101561151e576101e00190565b8051600f101561151e576102000190565b80516010101561151e576102200190565b80516011101561151e576102400190565b80516012101561151e576102600190565b80516013101561151e576102800190565b805182101561151e5760209160051b010190565b1561167757565b6333910aef60e11b60005260046000fd5b602081830312610166578051906001600160401b038211610166570181601f820112156101665780516116ba8161038c565b926116c86040519485610326565b81845260208284010111610166576111e491602080850191016111e7565b9060406111e49260008152816020820152019061120a565b1561170557565b639ebda18b60e01b60005260046000fd5b1561171d57565b63340dabef60e01b60005260046000fd5b634e487b7160e01b600052601160045260246000fd5b6001600160401b0361043219911601906001600160401b03821161176457565b61172e565b6001600160401b031661043303906001600160401b03821161176457565b906001600160401b03809116911603906001600160401b03821161176457565b906001600160401b03809116911602906001600160401b03821691820361176457565b6001600160401b0362989680911601906001600160401b03821161176457565b6001600160401b0316608001906001600160401b03821161176457565b6001600160401b036610000000000000911601906001600160401b03821161176457565b906001600160401b03809116911601906001600160401b03821161176457565b6040906111e493928152816020820152019061120a565b6020906118e892611871612468565b604051600360f81b858201526b436f6e74726163744461746160a01b602182015260609390931b6bffffffffffffffffffffffff1916602d8401526001600160a01b0390911660418084019190915282526118cd606183610326565b604051634a890f3160e01b815293849283926004840161184b565b0381600660ff60981b015afa90811561025a57600091611906575090565b6111e4915060203d602011610309576102fb8183610326565b60001981019190821161176457565b9190820391821161176457565b6001546001600160a01b0316330361194f57565b63118cdaa760e01b6000523360045260246000fd5b939290916119979060206119778761253e565b91604051809481926366968d1d60e11b8352600483019190602083019252565b0381600660ff60981b015afa91821561025a57600092611e41575b506119bb61145c565b95835115611e2f575b6119cc61263a565b6119d588611556565b526119df84611563565b5115611ddb5760c0926119f185611563565b515b6119fc89611563565b52611a0685611573565b5115611dc357611a1585611573565b515b611a2089611573565b52611a2a85611583565b5115611db55750611a3a84611583565b515b611a4588611583565b52611a4e6126d6565b611a5788611593565b52611a60612734565b611a69886115a3565b52611a73876115b3565b526080810151611a82876115c3565b52611a8c8361150d565b5115611d9f57611a9b8361150d565b515b611aa68761150d565b52611ab083611523565b5115611d8a57611abf83611523565b515b611aca87611523565b526040810151611ad9876115d4565b526060810151611ae8876115e5565b5260a0810151611af787611534565b520151611b0385611545565b52611b0d816115f6565b5115611d6757611b1c906115f6565b515b611b27846115f6565b52600080516020613f6a833981519152611b4084611607565b527f06ddf6e1ee758fde18425dbce46ccddab61afc4d83b90d27febdf928d8a18bfc611b6b84611618565b527f054a535a992921064d24e87160da387c7c35b5ddbc92bb81e41fa8404105448d611b9684611629565b52611b9f61145c565b916000611bab84611556565b52611bbe611bb884611563565b60019052565b6000611bc984611573565b526000611bd584611583565b526000611be184611593565b526000611bed846115a3565b526000611bf9846115b3565b526000611c05846115c3565b526000611c118461150d565b526000611c1d84611523565b526000611c29846115d4565b526000611c35846115e5565b526000611c4184611534565b526000611c4d84611545565b526000611c59846115f6565b526000611c6584611607565b526000611c7184611618565b526000611c7d84611629565b526111e4611c8961145c565b926000611c9585611556565b526000611ca185611563565b52611cae611bb885611573565b611cba611bb885611583565b6000611cc585611593565b526000611cd1856115a3565b52611cde611bb8856115b3565b611cea611bb8856115c3565b611cf6611bb88561150d565b611d02611bb885611523565b611d0e611bb8856115d4565b611d1a611bb8856115e5565b6000611d2585611534565b526000611d3185611545565b52611d3e611bb8856115f6565b6000611d4985611607565b526000611d5585611618565b526000611d6185611629565b526127aa565b50611d85611d74846115c3565b51611d7e85611556565b5190613584565b611b1e565b611d9a82820151611d7e88611563565b611ac1565b611db060a0820151611d7e88611563565b611a9d565b611dbe90612698565b611a3c565b611dd6611dcf89611563565b5182613584565b611a17565b60405163185540e360e11b815292602084600481600660ff60981b015afa801561025a5760c094600091611e10575b506119f3565b611e29915060203d602011610309576102fb8183610326565b38611e0a565b9250611e3b86516114c5565b926119c4565b611e5b91925060203d602011610309576102fb8183610326565b90386119b2565b46630e9ac0ce03611e91577fb75efce9ea62e768edd9aa8e7e44b86dd3ebf9594bf7fc98f48048180c01db8590565b46630e9ac0d603611ec0577f0512beab2ce8df4ae4df3ef1c99125715ba425970925ebb5dc062e6fd34bb68190565b630baaab1160e11b6000524660045260246000fd5b9390929360405194845190835195602283029360288501888015159687611f94575b50506020818b999695949901016040528952602089015281604089015360488801956000935b838510611f5d575050505050611f34575b50505090565b82825360005b838110611f475750611f2e565b8060208092840101516008828601015201611f3a565b9091929396602260019160208a60051b81818801015183528181870101518284015387010151602182015301970193929190611f1d565b6030925001018838611ef7565b6111e4906127106001600160401b03611fbe8160035416846117a7565b160490611787565b6040906001600160401b036111e49493168152816020820152019061120a565b602090611ffd6008959493828151948592016111e7565b01906001600160401b0360c01b9060c01b16815261202482518093602086850191016111e7565b010190565b6111e493926001600160401b036060931682526020820152816040820152019061120a565b60405163af25c07760e01b8152939192907f00000000000000000000000000000000000000000000000000000000000000006001600160a01b031690602086600481855afa95861561025a57600096612447575b5060405163af25c07760e01b81526001600160a01b03919091169290602081600481875afa90811561025a57600091612428575b5060405163185540e360e11b815296602088600481600660ff60981b015afa91821561025a576000988993612407575b506121118383613584565b9360206121566121218685613584565b60405163af554c5b60e01b8152600481018990526001600160401b038d1660248201529c90988d929091839182906044820190565b03925af190811561025a5761219e9a6020926123ec575b5060405163af554c5b60e01b8152600481018890526001600160401b039091166024820152998a9081906044820190565b038160008a5af197881561025a5761220c610bb16122c1986122b89861221d986122dd9e60009e6123cf575b506121d361147f565b986121dd8a611556565b526121e7896115c3565b526121f18861150d565b526001600160a01b0316600090815260026020526040902090565b916001600160401b03421693612846565b61222e84979299949a95939a611583565b51986122a861223b6114a2565b6122448a611556565b5161224e82611563565b526122588a6115b3565b516122628261150d565b5261226c8a611523565b5161227682611523565b526122808a6115d4565b5161228a826115e5565b526122948a6115e5565b5161229e82611534565b528b600181612cce565b91939e938361069d9c949c611e62565b9861069d6126d6565b60405163c549a7af60e01b815293849283929060048401611fc6565b038183600660ff60981b015af1801561025a576123b6575b5060008461230b61230584611523565b5161330d565b9661235561231a60018a61337c565b9561234761233761233289516001600160401b031690565b6133d7565b9760405198899360208501611fe6565b03601f198101875286610326565b6123736040519586938493630326074560e41b855260048501612029565b038183600660ff60981b015af191821561025a576123969261239d575b50611593565b5191929190565b6123b1903d806000833e6106e98183610326565b612390565b6123ca903d806000833e6106e98183610326565b6122f5565b6123e79060203d602011610253576102468183610326565b6121ca565b61240290833d8511610253576102468183610326565b61216d565b61242191935060203d602011610309576102fb8183610326565b9138612106565b612441915060203d602011610309576102fb8183610326565b386120d6565b61246191965060203d602011610309576102fb8183610326565b94386120a2565b46630e9ac0ce03612497577f09a4b472d9f2c537175e526beeedaab6768c80800edbf73b4410f48a91d651c190565b46630e9ac0d603611ec0577f058bf1f0ab8c7508d14efe57c15e86b22cf8246ca415ca5c4f69b3529a0f073b90565b6040519061014082018281106001600160401b03821117610347576040526000610120838281528260208201528260408201528260608201528260808201528260a08201528260c08201528260e0820152826101008201520152565b1561252a5750565b6387fe55bd60e01b60005260045260246000fd5b6125466124c6565b5061259d60008060405160208101906343ca516160e01b8252856024820152826044820152610148606482015260648152612582608482610326565b5190600260ff60981b015afa91612597613451565b92612522565b6125a681613481565b906125b0816134ce565b906125ba816134de565b6125c3826134ee565b6125cc836134fe565b6125d58461350e565b906125df8561351e565b926125e98661352e565b946125fc6125f688613540565b97613552565b9761260561035d565b998a5260208a015260408901526060880152608087015260a086015260c085015260e084015261010083015261012082015290565b46630e9ac0ce03612669577f5b84b7b4bd6b01e36118873168e4ffbcb9afd2c18ac15440bb3b790f4ca279d190565b46630e9ac0d603611ec0577f277a887bf474290c61129a6baadc699798c2628291c926d2433624d9a79a601a90565b60206118e8916126a6611e62565b604051916f6c6f636b65645f6c697175696469747960801b848401526030830152603082526118cd605083610326565b46630e9ac0ce03612705577fa92a311a8898864d2063c8fccb536e1e8a304d8d53984c0a4eb3c14407d674e790565b46630e9ac0d603611ec0577fa92a5a8b4f295952842550aa93fd5b95b5ace6a8eb920c93942e43690c20ec7390565b46630e9ac0ce03612763577f65cd985f02a93c6a9d0c1c82c037ba621e302f4a5666f5af6be37f50a37c140690565b46630e9ac0d603611ec0577feb00d9f5b292b4214ac7d037b4d6f06450b964600df373052bb5e84f2f8e9a6790565b1561279957565b63098fb56160e01b60005260046000fd5b6127c2906123326001600160401b0382161515612792565b60405167081e33c7d1b8f78560c01b602082015260c09190911b6001600160c01b0319166028820152601081526111e4603082610326565b1561280157565b63e16fb02360e01b60005260046000fd5b1561281957565b63c6f4c06f60e01b60005260046000fd5b156128325750565b6328b1d2fd60e11b60005260045260246000fd5b90959195612856818314156127fa565b81151580612cc5575b61286890612812565b6128726000613601565b9161287e828285613648565b9661289b886001600160401b0361289482613703565b161561282a565b6128a361147f565b97815115612cb3575b6128b582611556565b5115612c575790612a1e9291612a27956128ce83611556565b515b6128d98c611556565b526128e38b611563565b526128ec613735565b6128f58b611573565b526128ff8a611583565b528161290a8a611593565b52836129158a6115a3565b526129286129228a611583565b5161377a565b6129318a6115b3565b5261293b816115c3565b5115612c3f5761294a816115c3565b515b6129558a6115c3565b5261295f8161150d565b5115612c275761296e8161150d565b515b6129798a61150d565b5261298381611523565b5115612c0b5761299290611523565b515b61299d89611523565b526129b1816129ab8a611583565b516137b4565b6129ba896115d4565b526129c8836129ab8a611583565b6129d1896115e5565b526129da6137f3565b6129e389611534565b526129f66129f089611583565b51613851565b6129ff89611545565b52600080516020613f6a833981519152612a18896115f6565b5261388a565b612a1887611607565b612a3085611618565b527f8c97258f4e2489f1bb3d1029148e0d830b5a1399daff1084048e7bd8dbe9f859612a5b85611629565b526000612a678561163a565b52600080516020613f8a833981519152612a808561164b565b52612a8961147f565b92612a96611bb885611556565b612aa0845161191f565b60015b818110612bf55750506111e490612ab861147f565b93612ac5611bb886611556565b6000612ad086611563565b526000612adc86611573565b52612ae9611bb886611583565b6000612af486611593565b526000612b00866115a3565b52612b0d611bb8866115b3565b612b19611bb8866115c3565b612b25611bb88661150d565b612b31611bb886611523565b612b3d611bb8866115d4565b612b49611bb8866115e5565b612b55611bb886611534565b612b61611bb886611545565b6000612b6c866115f6565b526000612b7886611607565b526000612b8486611618565b526000612b9086611629565b526000612b9c8661163a565b526000612ba88661164b565b52612bef612bd160a0612bc3612bbd8b611563565b5161394b565b01516001600160401b031690565b612be9612be4612bdf61369e565b613a91565b613b1c565b9061182b565b97613c56565b806000612c046001938961165c565b5201612aa3565b50612c22612c18896115b3565b51611d7e8a611556565b612994565b612c3a612c338a611556565b5185613584565b612970565b612c52612c4b8a611556565b5183613584565b61294c565b60405163185540e360e11b8152929190602084600481600660ff60981b015afa95861561025a57612a2796612a1e95600091612c94575b506128d0565b612cad915060203d602011610309576102fb8183610326565b38612c8e565b9050612cbf88516114c5565b906128ac565b5080151561285f565b92939093606092612cdd6114a2565b948251156132fb575b612cee6124c6565b916001600160401b03612d0083613703565b161515806132c1575b6132b0575b61041c886132a7575b612d2c90612d26612bdf61369e565b90613c1b565b97613297575b612d3a61263a565b612d4388611556565b52612d4d84611563565b511561324657612d5c84611563565b515b612d6788611563565b52612d7187611563565b51612d7b88611573565b52612d8587611563565b51612d8f88611583565b52612d9984611593565b51156131ed5750612da983611593565b515b612db487611593565b52612dbe836115a3565b51156131d257612dcd836115a3565b515b612dd8876115a3565b52612de2866115b3565b52612dec826115c3565b51156131bb57612dfb826115c3565b515b612e06866115c3565b52612e108261150d565b51156131b157612e1f8261150d565b515b612e2a8661150d565b52612e3482611523565b511561319657612e4382611523565b515b612e4e86611523565b52612e58826115d4565b511561317b57612e67826115d4565b515b612e72866115d4565b52612e7c826115e5565b511561317157612e8b826115e5565b515b612e96866115e5565b52612ea082611534565b51156131685750612eb081611534565b515b612ebb85611534565b52612ec581611545565b511561315057612ed490611545565b515b612edf84611545565b52600080516020613f8a833981519152612ef8846115f6565b526000612f0484611607565b52600080516020613f6a833981519152612f1d84611618565b527f8c97258f4e2489f1bb3d1029148e0d830b5a1399daff1084048e7bd8dbe9f859612f4884611629565b527f0b7065b1e3d17c45389d527f6b04c3cd58b86c731aa0fdb549b6d1bc03f82946612f738461163a565b52612f7c6114a2565b916000612f8884611556565b52612f95611bb884611563565b612fa1611bb884611573565b612fad611bb884611583565b612fb9611bb884611593565b6000612fc4846115a3565b526000612fd0846115b3565b526000612fdc846115c3565b526000612fe88461150d565b526000612ff484611523565b526000613000846115d4565b52600061300c846115e5565b52600061301884611534565b52600061302484611545565b526000613030846115f6565b52600061303c84611607565b52600061304884611618565b52600061305484611629565b5260006130608461163a565b526130696114a2565b91600061307584611556565b52613082611bb884611563565b61308e611bb884611573565b61309a611bb884611583565b6130a6611bb884611593565b6130b2611bb8846115a3565b60006130bd846115b3565b526130ca611bb8846115c3565b60006130d58461150d565b526130e2611bb884611523565b6130ee611bb8846115d4565b6130fa611bb8846115e5565b613106611bb884611534565b613112611bb884611545565b600061311d846115f6565b52600061312984611607565b52600061313584611618565b52600061314184611629565b52600061314d8461163a565b52565b5061316361315d84611593565b51613cec565b612ed6565b60600151612eb2565b6040810151612e8d565b6131916131878661150d565b51611d7e87611556565b612e69565b6131ac6131a28661150d565b51611d7e87611563565b612e45565b6080810151612e21565b6131cd6131c786611593565b51612698565b612dfd565b6131e86131de87611593565b51611d7e88611563565b612dcf565b6040516366968d1d60e11b81526004810191909152602081602481600660ff60981b015afa90811561025a57600091613227575b50612dab565b613240915060203d602011610309576102fb8183610326565b38613221565b60405163185540e360e11b8152602081600481600660ff60981b015afa90811561025a57600091613278575b50612d5e565b613291915060203d602011610309576102fb8183610326565b38613272565b966132a1906117ca565b96612d32565b506106fb612d17565b91506132bb8161253e565b91612d0e565b506132cb8461150d565b511580156132ea575b80612d0957506132e384611534565b5115612d09565b506132f4846115e5565b51156132d4565b915061330785516114c5565b91612ce6565b6000809160405160208101916343ca516160e01b83526024820152604060448201526008606482015260648152613345608482610326565b5190600260ff60981b015afa613359613451565b901561336b576123326111e491613d86565b6335f307d960e11b60005260046000fd5b613394906123326001600160401b0382161515612792565b604051676c4e8ea713198f8d60c11b602082015260c09190911b6001600160c01b031916602882015290151560f81b6030820152601181526111e4603182610326565b67ffffffffffff000067ff00ff00ff00ff0066ff00ff00ff00ff8360081c169260081b169165ffff0000ffff65ffff0000ff0065ffffffffffff67ffff0000ffff0000861666ff0000ffff000085161760101c16941691161760101b161767ffffffff0000000063ffffffff8260201c169160201b161790565b3d1561347c573d906134628261038c565b916134706040519384610326565b82523d6000602084013e565b606090565b6028815110613491576028015190565b60405162461bcd60e51b8152602060048201526015602482015274746f427974657333325f6f75744f66426f756e647360581b6044820152606490fd5b6048815110613491576048015190565b6068815110613491576068015190565b6088815110613491576088015190565b60a88151106134915760a8015190565b60c88151106134915760c8015190565b60e88151106134915760e8015190565b61010881511061349157610108015190565b61012881511061349157610128015190565b61014881511061349157610148015190565b604c81511061349157604c015190565b606c81511061349157606c015190565b6118e8916020916040519183830152600080516020613f6a83398151915260408301526060820152606081526135bb608082610326565b60405180938192634a890f3160e01b83526040600484017f8c97258f4e2489f1bb3d1029148e0d830b5a1399daff1084048e7bd8dbe9f85981528187820152019061120a565b60206118e89161360f6126d6565b60405169616d6d5f636f6e66696760b01b8482015260f09290921b6001600160f01b031916602a830152600c82526118cd602c83610326565b6020916118e8936136576126d6565b9160405193631c1bdbdb60e21b86860152602485015260448401526064830152606482526118cd608483610326565b1561368d57565b63710e715560e11b60005260046000fd5b6001600160401b036000806040516020810190635545cce960e11b8252600080516020613f8a8339815191526024820152602481526136de604482610326565b5190600260ff60981b015afa6136ff60206136f7613451565b015191613686565b1690565b6000806001600160401b03926040516020810191635545cce960e11b83526024820152602481526136de604482610326565b6118e860206137426126d6565b604051907f7661756c745f616e645f6c705f6d696e745f617574685f73656564000000000083830152601b82526118cd603b83610326565b60206118e8916137886126d6565b604051916b1c1bdbdb17db1c17db5a5b9d60a21b84840152602c830152602c82526118cd604c83610326565b6020906118e8926137c36126d6565b9060405192691c1bdbdb17dd985d5b1d60b21b85850152602a840152604a830152604a82526118cd606a83610326565b46630e9ac0ce03613822577fdedf953b2e71837bb572ab091421997463fa9f21967cc2f503201e8415b3e4bf90565b46630e9ac0d603611ec0577fb7d0225254ac07e3b2bd3f86c1f0f1103fc0708cc15aef14073aa6453f55ea6990565b60206118e89161385f6126d6565b604051916a37b139b2b93b30ba34b7b760a91b84840152602b830152602b82526118cd604b83610326565b600080916040516020810191635091e19f60e11b83526024820152602481526138b4604482610326565b5190600260ff60981b015afa6138d16138cb613451565b91613686565b6020815110613491576020015190565b6040519061010082018281106001600160401b0382111761034757604052600060e0838281528260208201528260408201528260608201528260808201528260a08201528260c08201520152565b156139375750565b637e9663a360e11b60005260045260246000fd5b6139536138e1565b506139a960008060405160208101906343ca516160e01b8252856024820152826044820152606c60648201526064815261398e608482610326565b5190600260ff60981b015afa916139a3613451565b9261392f565b6139b281613e22565b906139d26139bf82613e6c565b60ff61ff008260081b169160081c161790565b90613a846139e261233283613dd2565b613a746139f161233285613de2565b613a64613a0061233287613df2565b91613a54613a1061233289613e02565b95613a44613a26613a208b613564565b9a613574565b9a613a39613a3261036d565b9d15158e52565b61ffff1660208d0152565b6001600160401b031660408b0152565b6001600160401b03166060890152565b6001600160401b03166080870152565b6001600160401b031660a0850152565b60c083015260e082015290565b60008091613aa96001600160401b0382161515613686565b6040516001600160401b0360208201926343ca516160e01b8452600080516020613f8a833981519152602484015284604484015216606482015260648152613af2608482610326565b5190600260ff60981b015afa6111e46138cb613451565b8181029291811591840414171561176457565b6001600160401b03906020613b96613b73613b6e613b5e612332613b58610b75613b486123328a613d86565b613b536117296117ea565b6117a7565b96613e12565b60c01b6001600160c01b03191690565b613ed0565b92613b90610b75613b8b86516001600160401b031690565b611807565b90613b09565b910180516001600160401b03166104338185161015613c035750610433613be1610b75613bd2613bcd85516001600160401b031690565b611769565b935b516001600160401b031690565b1015613bf5576001600160401b03161c1690565b6001600160401b03161b1690565b613be1610b75613c1561043393611744565b93613bd4565b906020613b96613b73613b6e613b5e6123326001600160401b03613c4f8199613b53613c496123328c613d86565b916117ea565b1696613e12565b613c84613c7e613c8a929493946001600160401b038116151580613cda575b61233290612792565b936133d7565b916133d7565b6040805167afaf6d1f0d989bed60c01b6020808301919091526001600160c01b031960c096871b8116602884015294861b851660308301529290941b909216603884015282526111e49082610326565b506001600160401b0386161515613c75565b60206118e89160405190676d6574616461746160c01b838301527f0b7065b1e3d17c45389d527f6b04c3cd58b86c731aa0fdb549b6d1bc03f829466028830152604882015260488152613d40606882610326565b60405180938192634a890f3160e01b83526040600484017f0b7065b1e3d17c45389d527f6b04c3cd58b86c731aa0fdb549b6d1bc03f8294681528187820152019061120a565b6008815110613d96576008015190565b60405162461bcd60e51b8152602060048201526014602482015273746f55696e7436345f6f75744f66426f756e647360601b6044820152606490fd5b6014815110613d96576014015190565b601c815110613d9657601c015190565b6024815110613d96576024015190565b602c815110613d9657602c015190565b6010815110613d96576010015190565b600b815110613e32576029015190565b60405162461bcd60e51b8152602060048201526012602482015271746f426f6f6c5f6f75744f66426f756e647360701b6044820152606490fd5b600c815110613e7c57600c015190565b60405162461bcd60e51b8152602060048201526014602482015273746f55696e7431365f6f75744f66426f756e647360601b6044820152606490fd5b15613ebf57565b634ebd525d60e01b60005260046000fd5b604051604081018181106001600160401b0382111761034757600091602091604052828152015260c01c678000000000000000811015613f58576111e4603482901c6107ff16613f2461043e821115613eb8565b613f48660fffffffffffff613f3761037d565b941684906001600160401b03169052565b6001600160401b03166020830152565b63308e6a4b60e21b60005260046000fdfe06ddf6e1d765a193d9cbe146ceeb79ac1cb485ed5f5b37913a8cf5857eff00a906a7d517192c5c51218cc94c3d4af17f58daee089ba1fd44e3dbd98a00000000a2646970667358221220e22ade741cad0a6403db1997ba980c5fceec4fe614b67c97484efa33ec706b0f64736f6c634300081c0033",
  "linkReferences": {},
  "deployedLinkReferences": {}
}